1546574526.405333 |<-| 8=FIX.4.4|9=119|35=A|49=FIXTEST|56=B2C2DT|34=1|52=20190104-04:02:06.396|98=0|108=30|141=Y|553=98f22a93df12070461a8ae2b3a8885cedcd1ff54|10=004|
1546574532.155575 |->| 8=FIX.4.4|9=68|35=A|49=B2C2DT|56=FIXTEST|34=1|52=20190104-04:02:12.153|98=0|108=30|10=159|
1546574532.176785 |<-| 8=FIX.4.4|9=183|35=D|49=FIXTEST|56=B2C2DT|34=2|52=20190104-04:02:12.175|11=cid-1546574532169|1=ACC1|40=2|54=1|55=LTCUSD.CFD|59=4|38=0.1|44=25000.00|60=20190104-04:02:12.169|168=20190104-08:12:12.169|10=003|
1546574532.713291 |->| 8=FIX.4.4|9=294|35=8|49=B2C2DT|56=FIXTEST|34=2|52=20190104-04:02:12.712|37=cb1897a1-9c52-44d4-8c50-9b06852a8a77|11=cid-1546574532169|17=6ee55943-53ed-49cc-b57b-244aae6af759|150=F|39=2|1=ACC1|55=LTCUSD.CFD|54=1|40=2|44=25000.00|38=0.1|32=0.1|31=32.046|14=0.1|6=32.046|151=0.0|60=20190104-04:02:12.454|58=Filled|10=035|
1546574532.767793 |<-| 8=FIX.4.4|9=183|35=D|49=FIXTEST|56=B2C2DT|34=3|52=20190104-04:02:12.766|11=cid-1546574532765|1=ACC1|40=2|54=1|55=LTCUSD.CFD|59=4|38=0.1|44=25000.00|60=20190104-04:02:12.765|168=20190104-08:12:12.765|10=016|
1546574533.418606 |->| 8=FIX.4.4|9=292|35=8|49=B2C2DT|56=FIXTEST|34=3|52=20190104-04:02:13.417|37=291c2ed6-77c2-4ac9-a33a-f4a2229615bb|11=cid-1546574532765|17=490b0b6f-4ff2-4c8e-b4a4-3b8f9318729d|150=F|39=2|1=ACC1|55=LTCUSD.CFD|54=1|40=2|44=25000.00|38=0.1|32=0.1|31=32.01|14=0.1|6=32.01|151=0.0|60=20190104-04:02:13.144|58=Filled|10=248|
1546574533.422679 |<-| 8=FIX.4.4|9=181|35=D|49=FIXTEST|56=B2C2DT|34=4|52=20190104-04:02:13.421|11=cid-1546574533420|1=ACC1|40=2|54=2|55=LTCUSD.CFD|59=4|38=0.2|44=0.0001|60=20190104-04:02:13.421|168=20190104-08:12:13.421|10=129|
1546574534.311143 |->| 8=FIX.4.4|9=292|35=8|49=B2C2DT|56=FIXTEST|34=4|52=20190104-04:02:14.310|37=edd30677-ac0c-42d3-8e5d-7557ff96274d|11=cid-1546574533420|17=2fa3c6fa-6640-4600-b3ef-1cdb3d77d139|150=F|39=2|1=ACC1|55=LTCUSD.CFD|54=2|40=2|44=0.0001|38=0.2|32=0.2|31=31.883|14=0.2|6=31.883|151=0.0|60=20190104-04:02:13.777|58=Filled|10=073|
1546574534.317117 |<-| 8=FIX.4.4|9=56|35=5|49=FIXTEST|56=B2C2DT|34=5|52=20190104-04:02:14.316|10=126|
1546574534.317747 |->| 8=FIX.4.4|9=56|35=5|49=B2C2DT|56=FIXTEST|34=5|52=20190104-04:02:14.317|10=127|
1546574534.331992 |<-| 8=FIX.4.4|9=119|35=A|49=FIXTEST|56=B2C2DT|34=1|52=20190104-04:02:14.326|98=0|108=30|141=Y|553=98f22a93df12070461a8ae2b3a8885cedcd1ff54|10=252|
1546574534.693739 |->| 8=FIX.4.4|9=68|35=A|49=B2C2DT|56=FIXTEST|34=1|52=20190104-04:02:14.693|98=0|108=30|10=170|
1546574534.704098 |<-| 8=FIX.4.4|9=183|35=D|49=FIXTEST|56=B2C2DT|34=2|52=20190104-04:02:14.700|11=cid-1546574534697|1=ACC1|40=2|54=1|55=BTCUSD.CFD|59=4|38=0.1|44=25000.00|60=20190104-04:02:14.697|168=20190104-08:12:14.697|10=013|
1546574535.501731 |->| 8=FIX.4.4|9=294|35=8|49=B2C2DT|56=FIXTEST|34=2|52=20190104-04:02:15.501|37=197e6ca6-279c-498c-921b-0004339f349a|11=cid-1546574534697|17=b407df99-6420-4db8-8d37-c7eb85862707|150=F|39=2|1=ACC1|55=BTCUSD.CFD|54=1|40=2|44=25000.00|38=0.1|32=0.1|31=3806.1|14=0.1|6=3806.1|151=0.0|60=20190104-04:02:15.055|58=Filled|10=062|
1546574535.508063 |<-| 8=FIX.4.4|9=56|35=5|49=FIXTEST|56=B2C2DT|34=3|52=20190104-04:02:15.506|10=126|
1546574535.509079 |->| 8=FIX.4.4|9=56|35=5|49=B2C2DT|56=FIXTEST|34=3|52=20190104-04:02:15.508|10=128|
1546574535.522792 |<-| 8=FIX.4.4|9=116|35=A|49=MARK|56=B2C2DT|34=1|52=20190104-04:02:15.521|98=0|108=30|141=Y|553=4e4f2a9d1531abe8acdf4a7738b78c1d91f25474|10=255|
1546574535.878511 |->| 8=FIX.4.4|9=65|35=A|49=B2C2DT|56=MARK|34=1|52=20190104-04:02:15.878|98=0|108=30|10=177|
1546574535.882847 |<-| 8=FIX.4.4|9=107|35=R|49=MARK|56=B2C2DT|34=2|52=20190104-04:02:15.881|131=id-1546574535879|146=1|55=BTCUSD.SPOT|54=1|38=1.0|10=078|
1546574536.279328 |->| 8=FIX.4.4|9=204|35=S|49=B2C2DT|56=MARK|34=2|52=20190104-04:02:16.278|117=d3762403-3619-4672-9c92-3b88976f6e90|131=id-1546574535879|55=BTCUSD.SPOT|54=1|133=3805.7|135=1.0|62=20190104-04:02:37.101|60=20190104-04:02:16.101|10=033|
1546574536.285810 |<-| 8=FIX.4.4|9=53|35=5|49=MARK|56=B2C2DT|34=3|52=20190104-04:02:16.283|10=130|
1546574536.287310 |->| 8=FIX.4.4|9=53|35=5|49=B2C2DT|56=MARK|34=3|52=20190104-04:02:16.287|10=134|
1546574536.308956 |<-| 8=FIX.4.4|9=119|35=A|49=FIXTEST|56=B2C2DM|34=1|52=20190104-04:02:16.307|98=0|108=30|141=Y|553=98f22a93df12070461a8ae2b3a8885cedcd1ff54|10=246|
1546574536.780893 |->| 8=FIX.4.4|9=68|35=A|49=B2C2DM|56=FIXTEST|34=1|52=20190104-04:02:16.780|98=0|108=30|10=162|
1546574536.783136 |<-| 8=FIX.4.4|9=72|35=x|49=FIXTEST|56=B2C2DM|34=2|52=20190104-04:02:16.782|320=00123|559=0|10=152|
1546574537.169311 |->| 8=FIX.4.4|9=195|35=y|49=B2C2DM|56=FIXTEST|34=2|52=20190104-04:02:17.168|320=00123|322=6a2965b3-da41-4f4f-87dd-a3225c14512b|560=0|393=5|146=5|55=LTCUSD.CFD|55=BTCUSD.CFD|55=XRPUSD.CFD|55=BTCJPY.CFD|55=ETHBTC.CFD|10=036|
1546574537.171281 |<-| 8=FIX.4.4|9=56|35=5|49=FIXTEST|56=B2C2DM|34=3|52=20190104-04:02:17.170|10=118|
1546574537.171726 |->| 8=FIX.4.4|9=56|35=5|49=B2C2DM|56=FIXTEST|34=3|52=20190104-04:02:17.171|10=119|
1546574537.177981 |<-| 8=FIX.4.4|9=119|35=A|49=FIXTEST|56=B2C2DD|34=1|52=20190104-04:02:17.177|98=0|108=30|141=Y|553=98f22a93df12070461a8ae2b3a8885cedcd1ff54|10=243|
1546574557.182847 |<-| 8=FIX.4.4|9=116|35=A|49=MARK|56=B2C2DM|34=1|52=20190104-04:02:37.182|98=0|108=30|141=Y|553=4e4f2a9d1531abe8acdf4a7738b78c1d91f25474|10=255|
1546574557.542451 |->| 8=FIX.4.4|9=65|35=A|49=B2C2DM|56=MARK|34=1|52=20190104-04:02:37.541|98=0|108=30|10=161|
1546574557.553913 |<-| 8=FIX.4.4|9=128|35=V|49=MARK|56=B2C2DM|34=2|52=20190104-04:02:37.550|262=btcusd-123234|263=1|264=0|265=0|267=2|269=0|269=1|146=1|55=BTCUSD.SPOT|10=191|
